{
  "contractName": "TimeStore",
  "abi": [
    {
      "inputs": [
        {
          "internalType": "address",
          "name": "",
          "type": "address"
        },
        {
          "internalType": "uint256",
          "name": "",
          "type": "uint256"
        }
      ],
      "name": "store",
      "outputs": [
        {
          "internalType": "uint256",
          "name": "id",
          "type": "uint256"
        },
        {
          "internalType": "string",
          "name": "storedMsg",
          "type": "string"
        },
        {
          "internalType": "uint256",
          "name": "unlockTime",
          "type": "uint256"
        }
      ],
      "stateMutability": "view",
      "type": "function",
      "constant": true
    },
    {
      "inputs": [
        {
          "internalType": "uint256",
          "name": "",
          "type": "uint256"
        }
      ],
      "name": "userStoredData",
      "outputs": [
        {
          "internalType": "uint256",
          "name": "id",
          "type": "uint256"
        },
        {
          "internalType": "string",
          "name": "storedMsg",
          "type": "string"
        },
        {
          "internalType": "uint256",
          "name": "unlockTime",
          "type": "uint256"
        }
      ],
      "stateMutability": "view",
      "type": "function",
      "constant": true
    },
    {
      "inputs": [
        {
          "internalType": "string",
          "name": "_storedMsg",
          "type": "string"
        },
        {
          "internalType": "uint256",
          "name": "_unlockTime",
          "type": "uint256"
        }
      ],
      "name": "storeMsg",
      "outputs": [],
      "stateMutability": "nonpayable",
      "type": "function"
    },
    {
      "inputs": [],
      "name": "getMsgTimed",
      "outputs": [
        {
          "components": [
            {
              "internalType": "uint256",
              "name": "id",
              "type": "uint256"
            },
            {
              "internalType": "string",
              "name": "storedMsg",
              "type": "string"
            },
            {
              "internalType": "uint256",
              "name": "unlockTime",
              "type": "uint256"
            }
          ],
          "internalType": "struct TimeStore.StoredData[]",
          "name": "",
          "type": "tuple[]"
        }
      ],
      "stateMutability": "view",
      "type": "function",
      "constant": true
    }
  ],
  "bytecode": "0x608060405234801561001057600080fd5b50610e6d806100206000396000f3fe608060405234801561001057600080fd5b506004361061004c5760003560e01c8063288e725f146100515780635490ebdf1461006d578063a271ced21461008b578063eff53aa1146100bd575b600080fd5b61006b60048036036100669190810190610a75565b6100ef565b005b610075610322565b6040516100829190610c5b565b60405180910390f35b6100a560048036036100a09190810190610a39565b610587565b6040516100b493929190610c7d565b60405180910390f35b6100d760048036036100d29190810190610ac9565b610663565b6040516100e693929190610c7d565b60405180910390f35b6060600160003373ffffffffffffffffffffffffffffffffffffffff1673ffffffffffffffffffffffffffffffffffffffff168152602001908152602001600020805480602002602001604051908101604052809291908181526020016000905b82821015610238578382906000526020600020906003020160405180606001604052908160008201548152602001600182018054600181600116156101000203166002900480601f0160208091040260200160405190810160405280929190818152602001828054600181600116156101000203166002900480156102165780601f106101eb57610100808354040283529160200191610216565b820191906000526020600020905b8154815290600101906020018083116101f957829003601f168201915b5050505050815260200160028201548152505081526020019060010190610150565b50505050905060006001825101905061024f610732565b604051806060016040528083815260200186815260200185815250905060008190806001815401808255809150506001900390600052602060002090600302016000909190919091506000820151816000015560208201518160010190805190602001906102be929190610753565b506040820151816002015550506000600160003373ffffffffffffffffffffffffffffffffffffffff1673ffffffffffffffffffffffffffffffffffffffff16815260200190815260200160002090805461031a9291906107d3565b505050505050565b606080600160003373ffffffffffffffffffffffffffffffffffffffff1673ffffffffffffffffffffffffffffffffffffffff168152602001908152602001600020805480602002602001604051908101604052809291908181526020016000905b8282101561046c578382906000526020600020906003020160405180606001604052908160008201548152602001600182018054600181600116156101000203166002900480601f01602080910402602001604051908101604052809291908181526020018280546001816001161561010002031660029004801561044a5780601f1061041f5761010080835404028352916020019161044a565b820191906000526020600020905b81548152906001019060200180831161042d57829003601f168201915b5050505050815260200160028201548152505081526020019060010190610384565b505050509050606081516040519080825280602002602001820160405280156104af57816020015b61049c610867565b8152602001906001900390816104945790505b509050600080905060008090505b835181101561057d57428482815181106104d357fe5b60200260200101516040015111610570576104ec610732565b604051806060016040528086848151811061050357fe5b602002602001015160000151815260200186848151811061052057fe5b602002602001015160200151815260200186848151811061053d57fe5b60200260200101516040015181525090508084848151811061055b57fe5b60200260200101819052508280600101935050505b80806001019150506104bd565b5081935050505090565b600160205281600052604060002081815481106105a057fe5b906000526020600020906003020160009150915050806000015490806001018054600181600116156101000203166002900480601f0160208091040260200160405190810160405280929190818152602001828054600181600116156101000203166002900480156106535780601f1061062857610100808354040283529160200191610653565b820191906000526020600020905b81548152906001019060200180831161063657829003601f168201915b5050505050908060020154905083565b6000818154811061067057fe5b9060005260206000209060030201600091509050806000015490806001018054600181600116156101000203166002900480601f0160208091040260200160405190810160405280929190818152602001828054600181600116156101000203166002900480156107225780601f106106f757610100808354040283529160200191610722565b820191906000526020600020905b81548152906001019060200180831161070557829003601f168201915b5050505050908060020154905083565b60405180606001604052806000815260200160608152602001600081525090565b828054600181600116156101000203166002900490600052602060002090601f016020900481019282601f1061079457805160ff19168380011785556107c2565b828001600101855582156107c2579182015b828111156107c15782518255916020019190600101906107a6565b5b5090506107cf9190610888565b5090565b8280548282559060005260206000209060030281019282156108565760005260206000209160030282015b8281111561085557828260008201548160000155600182018160010190805460018160011615610100020316600290046108399291906108ad565b50600282015481600201555050916003019190600301906107fe565b5b5090506108639190610934565b5090565b60405180606001604052806000815260200160608152602001600081525090565b6108aa91905b808211156108a657600081600090555060010161088e565b5090565b90565b828054600181600116156101000203166002900490600052602060002090601f016020900481019282601f106108e65780548555610923565b8280016001018555821561092357600052602060002091601f016020900482015b82811115610922578254825591600101919060010190610907565b5b5090506109309190610888565b5090565b61097091905b8082111561096c5760008082016000905560018201600061095b9190610973565b60028201600090555060030161093a565b5090565b90565b50805460018160011615610100020316600290046000825580601f1061099957506109b8565b601f0160209004906000526020600020908101906109b79190610888565b5b50565b6000813590506109ca81610e09565b92915050565b600082601f8301126109e157600080fd5b81356109f46109ef82610ce8565b610cbb565b91508082526020830160208301858383011115610a1057600080fd5b610a1b838284610db6565b50505092915050565b600081359050610a3381610e20565b92915050565b60008060408385031215610a4c57600080fd5b6000610a5a858286016109bb565b9250506020610a6b85828601610a24565b9150509250929050565b60008060408385031215610a8857600080fd5b600083013567ffffffffffffffff811115610aa257600080fd5b610aae858286016109d0565b9250506020610abf85828601610a24565b9150509250929050565b600060208284031215610adb57600080fd5b6000610ae984828501610a24565b91505092915050565b6000610afe8383610bed565b905092915050565b6000610b1182610d24565b610b1b8185610d47565b935083602082028501610b2d85610d14565b8060005b85811015610b695784840389528151610b4a8582610af2565b9450610b5583610d3a565b925060208a01995050600181019050610b31565b50829750879550505050505092915050565b6000610b8682610d2f565b610b908185610d58565b9350610ba0818560208601610dc5565b610ba981610df8565b840191505092915050565b6000610bbf82610d2f565b610bc98185610d69565b9350610bd9818560208601610dc5565b610be281610df8565b840191505092915050565b6000606083016000830151610c056000860182610c3d565b5060208301518482036020860152610c1d8282610b7b565b9150506040830151610c326040860182610c3d565b508091505092915050565b610c4681610dac565b82525050565b610c5581610dac565b82525050565b60006020820190508181036000830152610c758184610b06565b905092915050565b6000606082019050610c926000830186610c4c565b8181036020830152610ca48185610bb4565b9050610cb36040830184610c4c565b949350505050565b6000604051905081810181811067ffffffffffffffff82111715610cde57600080fd5b8060405250919050565b600067ffffffffffffffff821115610cff57600080fd5b601f19601f8301169050602081019050919050565b6000819050602082019050919050565b600081519050919050565b600081519050919050565b6000602082019050919050565b600082825260208201905092915050565b600082825260208201905092915050565b600082825260208201905092915050565b6000610d8582610d8c565b9050919050565b600073ffffffffffffffffffffffffffffffffffffffff82169050919050565b6000819050919050565b82818337600083830152505050565b60005b83811015610de3578082015181840152602081019050610dc8565b83811115610df2576000848401525b50505050565b6000601f19601f8301169050919050565b610e1281610d7a565b8114610e1d57600080fd5b50565b610e2981610dac565b8114610e3457600080fd5b5056fea2646970667358221220d1f9d40f5a1335464b2737636502ef7555c995797739e94d656aea7c4f224b4d64736f6c63430006010033",
  "source": "// SPDX-License-Identifier: The Unlicencse\npragma solidity ^0.6.1;\npragma experimental ABIEncoderV2;\n\ncontract TimeStore  {\n\n    struct StoredData {\n        uint id;\n        string storedMsg;\n        uint unlockTime;\n    }\n    StoredData[] public userStoredData;\n    mapping(address => StoredData[]) public store;\n        \n    // Finds length of current array, so to generate next ID number\n    // Next ID starts at 1, so IDs of zero can be removed\n    // Necessary as memory array in getMsgTimed returns empty arrays\n    // Add user data to temp struct, pushes temp struct to array\n    // Maps array to msg.sender\n    function storeMsg(string memory _storedMsg, uint _unlockTime) public {\n        StoredData[] memory currentData = store[msg.sender];\n        uint nextId = currentData.length + 1;\n        StoredData memory newData = StoredData(nextId, _storedMsg, _unlockTime);\n        userStoredData.push(newData);\n        store[msg.sender] = userStoredData;\n    }\n\n\n    // Returns from smart contract, as array of objects, all messages that are unlocked\n    // For any message not unlocked returns an object with blank values\n    function getMsgTimed() public view returns (StoredData[] memory) {\n        StoredData[] memory currentData = store[msg.sender];\n        StoredData[] memory unlockedData = new StoredData[](currentData.length);\n        uint unlockedDataIndex = 0;\n        for (uint i = 0; i < currentData.length; i++) {\n            if (currentData[i].unlockTime <= now) {\n                StoredData memory newData = StoredData(currentData[i].id, currentData[i].storedMsg, currentData[i].unlockTime);\n                unlockedData[unlockedDataIndex] = newData;\n                unlockedDataIndex++;\n            }\n        }\n        return unlockedData;\n    }\n    \n}\n\n",
  "sourcePath": "/home/gene/Programming/Testbed/forget-me-block-msg-time-store/contracts/TimeStore.sol",
  "compiler": {
    "name": "solc",
    "version": "0.6.1+commit.e6f7d5a4.Emscripten.clang"
  },
  "schemaVersion": "3.2.0",
  "updatedAt": "2020-07-13T16:48:23.050Z",
  "networkType": "ethereum",
  "devdoc": {
    "methods": {}
  },
  "userdoc": {
    "methods": {}
  }
}