{
  "contractName": "TimeStore",
  "abi": [
    {
      "inputs": [
        {
          "internalType": "uint256",
          "name": "",
          "type": "uint256"
        }
      ],
      "name": "arrString",
      "outputs": [
        {
          "internalType": "string",
          "name": "",
          "type": "string"
        }
      ],
      "stateMutability": "view",
      "type": "function",
      "constant": true
    },
    {
      "inputs": [
        {
          "internalType": "address",
          "name": "",
          "type": "address"
        },
        {
          "internalType": "uint256",
          "name": "",
          "type": "uint256"
        }
      ],
      "name": "store",
      "outputs": [
        {
          "internalType": "uint256",
          "name": "id",
          "type": "uint256"
        },
        {
          "internalType": "string",
          "name": "storedMsg",
          "type": "string"
        },
        {
          "internalType": "uint256",
          "name": "unlockTime",
          "type": "uint256"
        }
      ],
      "stateMutability": "view",
      "type": "function",
      "constant": true
    },
    {
      "inputs": [
        {
          "internalType": "uint256",
          "name": "",
          "type": "uint256"
        }
      ],
      "name": "userStoredData",
      "outputs": [
        {
          "internalType": "uint256",
          "name": "id",
          "type": "uint256"
        },
        {
          "internalType": "string",
          "name": "storedMsg",
          "type": "string"
        },
        {
          "internalType": "uint256",
          "name": "unlockTime",
          "type": "uint256"
        }
      ],
      "stateMutability": "view",
      "type": "function",
      "constant": true
    },
    {
      "inputs": [
        {
          "internalType": "string",
          "name": "_storedMsg",
          "type": "string"
        },
        {
          "internalType": "uint256",
          "name": "_unlockTime",
          "type": "uint256"
        }
      ],
      "name": "storeMsg",
      "outputs": [],
      "stateMutability": "nonpayable",
      "type": "function"
    },
    {
      "inputs": [],
      "name": "getMsgNow",
      "outputs": [
        {
          "components": [
            {
              "internalType": "uint256",
              "name": "id",
              "type": "uint256"
            },
            {
              "internalType": "string",
              "name": "storedMsg",
              "type": "string"
            },
            {
              "internalType": "uint256",
              "name": "unlockTime",
              "type": "uint256"
            }
          ],
          "internalType": "struct TimeStore.StoredData[]",
          "name": "",
          "type": "tuple[]"
        }
      ],
      "stateMutability": "view",
      "type": "function",
      "constant": true
    },
    {
      "inputs": [],
      "name": "getMsgTimed",
      "outputs": [
        {
          "components": [
            {
              "internalType": "uint256",
              "name": "id",
              "type": "uint256"
            },
            {
              "internalType": "string",
              "name": "storedMsg",
              "type": "string"
            },
            {
              "internalType": "uint256",
              "name": "unlockTime",
              "type": "uint256"
            }
          ],
          "internalType": "struct TimeStore.StoredData[]",
          "name": "",
          "type": "tuple[]"
        }
      ],
      "stateMutability": "view",
      "type": "function",
      "constant": true
    }
  ],
  "bytecode": "0x608060405234801561001057600080fd5b50611103806100206000396000f3fe608060405234801561001057600080fd5b50600436106100625760003560e01c806315bdcae814610067578063288e725f146100975780635490ebdf146100b357806370b69973146100d1578063a271ced2146100ef578063eff53aa114610121575b600080fd5b610081600480360361007c9190810190610d3d565b610153565b60405161008e9190610ef1565b60405180910390f35b6100b160048036036100ac9190810190610ce9565b61020c565b005b6100bb61043f565b6040516100c89190610ecf565b60405180910390f35b6100d96106a4565b6040516100e69190610ecf565b60405180910390f35b61010960048036036101049190810190610cad565b6107fb565b60405161011893929190610f13565b60405180910390f35b61013b60048036036101369190810190610d3d565b6108d7565b60405161014a93929190610f13565b60405180910390f35b6001818154811061016057fe5b906000526020600020016000915090508054600181600116156101000203166002900480601f0160208091040260200160405190810160405280929190818152602001828054600181600116156101000203166002900480156102045780601f106101d957610100808354040283529160200191610204565b820191906000526020600020905b8154815290600101906020018083116101e757829003601f168201915b505050505081565b6060600260003373ffffffffffffffffffffffffffffffffffffffff1673ffffffffffffffffffffffffffffffffffffffff168152602001908152602001600020805480602002602001604051908101604052809291908181526020016000905b82821015610355578382906000526020600020906003020160405180606001604052908160008201548152602001600182018054600181600116156101000203166002900480601f0160208091040260200160405190810160405280929190818152602001828054600181600116156101000203166002900480156103335780601f1061030857610100808354040283529160200191610333565b820191906000526020600020905b81548152906001019060200180831161031657829003601f168201915b505050505081526020016002820154815250508152602001906001019061026d565b50505050905060006001825101905061036c6109a6565b604051806060016040528083815260200186815260200185815250905060008190806001815401808255809150506001900390600052602060002090600302016000909190919091506000820151816000015560208201518160010190805190602001906103db9291906109c7565b506040820151816002015550506000600260003373ffffffffffffffffffffffffffffffffffffffff1673ffffffffffffffffffffffffffffffffffffffff168152602001908152602001600020908054610437929190610a47565b505050505050565b606080600260003373ffffffffffffffffffffffffffffffffffffffff1673ffffffffffffffffffffffffffffffffffffffff168152602001908152602001600020805480602002602001604051908101604052809291908181526020016000905b82821015610589578382906000526020600020906003020160405180606001604052908160008201548152602001600182018054600181600116156101000203166002900480601f0160208091040260200160405190810160405280929190818152602001828054600181600116156101000203166002900480156105675780601f1061053c57610100808354040283529160200191610567565b820191906000526020600020905b81548152906001019060200180831161054a57829003601f168201915b50505050508152602001600282015481525050815260200190600101906104a1565b505050509050606081516040519080825280602002602001820160405280156105cc57816020015b6105b9610adb565b8152602001906001900390816105b15790505b509050600080905060008090505b835181101561069a57428482815181106105f057fe5b6020026020010151604001511161068d576106096109a6565b604051806060016040528086848151811061062057fe5b602002602001015160000151815260200186848151811061063d57fe5b602002602001015160200151815260200186848151811061065a57fe5b60200260200101516040015181525090508084848151811061067857fe5b60200260200101819052508280600101935050505b80806001019150506105da565b5081935050505090565b606080600260003373ffffffffffffffffffffffffffffffffffffffff1673ffffffffffffffffffffffffffffffffffffffff168152602001908152602001600020805480602002602001604051908101604052809291908181526020016000905b828210156107ee578382906000526020600020906003020160405180606001604052908160008201548152602001600182018054600181600116156101000203166002900480601f0160208091040260200160405190810160405280929190818152602001828054600181600116156101000203166002900480156107cc5780601f106107a1576101008083540402835291602001916107cc565b820191906000526020600020905b8154815290600101906020018083116107af57829003601f168201915b5050505050815260200160028201548152505081526020019060010190610706565b5050505090508091505090565b6002602052816000526040600020818154811061081457fe5b906000526020600020906003020160009150915050806000015490806001018054600181600116156101000203166002900480601f0160208091040260200160405190810160405280929190818152602001828054600181600116156101000203166002900480156108c75780601f1061089c576101008083540402835291602001916108c7565b820191906000526020600020905b8154815290600101906020018083116108aa57829003601f168201915b5050505050908060020154905083565b600081815481106108e457fe5b9060005260206000209060030201600091509050806000015490806001018054600181600116156101000203166002900480601f0160208091040260200160405190810160405280929190818152602001828054600181600116156101000203166002900480156109965780601f1061096b57610100808354040283529160200191610996565b820191906000526020600020905b81548152906001019060200180831161097957829003601f168201915b5050505050908060020154905083565b60405180606001604052806000815260200160608152602001600081525090565b828054600181600116156101000203166002900490600052602060002090601f016020900481019282601f10610a0857805160ff1916838001178555610a36565b82800160010185558215610a36579182015b82811115610a35578251825591602001919060010190610a1a565b5b509050610a439190610afc565b5090565b828054828255906000526020600020906003028101928215610aca5760005260206000209160030282015b82811115610ac95782826000820154816000015560018201816001019080546001816001161561010002031660029004610aad929190610b21565b5060028201548160020155505091600301919060030190610a72565b5b509050610ad79190610ba8565b5090565b60405180606001604052806000815260200160608152602001600081525090565b610b1e91905b80821115610b1a576000816000905550600101610b02565b5090565b90565b828054600181600116156101000203166002900490600052602060002090601f016020900481019282601f10610b5a5780548555610b97565b82800160010185558215610b9757600052602060002091601f016020900482015b82811115610b96578254825591600101919060010190610b7b565b5b509050610ba49190610afc565b5090565b610be491905b80821115610be057600080820160009055600182016000610bcf9190610be7565b600282016000905550600301610bae565b5090565b90565b50805460018160011615610100020316600290046000825580601f10610c0d5750610c2c565b601f016020900490600052602060002090810190610c2b9190610afc565b5b50565b600081359050610c3e8161109f565b92915050565b600082601f830112610c5557600080fd5b8135610c68610c6382610f7e565b610f51565b91508082526020830160208301858383011115610c8457600080fd5b610c8f83828461104c565b50505092915050565b600081359050610ca7816110b6565b92915050565b60008060408385031215610cc057600080fd5b6000610cce85828601610c2f565b9250506020610cdf85828601610c98565b9150509250929050565b60008060408385031215610cfc57600080fd5b600083013567ffffffffffffffff811115610d1657600080fd5b610d2285828601610c44565b9250506020610d3385828601610c98565b9150509250929050565b600060208284031215610d4f57600080fd5b6000610d5d84828501610c98565b91505092915050565b6000610d728383610e61565b905092915050565b6000610d8582610fba565b610d8f8185610fdd565b935083602082028501610da185610faa565b8060005b85811015610ddd5784840389528151610dbe8582610d66565b9450610dc983610fd0565b925060208a01995050600181019050610da5565b50829750879550505050505092915050565b6000610dfa82610fc5565b610e048185610fee565b9350610e1481856020860161105b565b610e1d8161108e565b840191505092915050565b6000610e3382610fc5565b610e3d8185610fff565b9350610e4d81856020860161105b565b610e568161108e565b840191505092915050565b6000606083016000830151610e796000860182610eb1565b5060208301518482036020860152610e918282610def565b9150506040830151610ea66040860182610eb1565b508091505092915050565b610eba81611042565b82525050565b610ec981611042565b82525050565b60006020820190508181036000830152610ee98184610d7a565b905092915050565b60006020820190508181036000830152610f0b8184610e28565b905092915050565b6000606082019050610f286000830186610ec0565b8181036020830152610f3a8185610e28565b9050610f496040830184610ec0565b949350505050565b6000604051905081810181811067ffffffffffffffff82111715610f7457600080fd5b8060405250919050565b600067ffffffffffffffff821115610f9557600080fd5b601f19601f8301169050602081019050919050565b6000819050602082019050919050565b600081519050919050565b600081519050919050565b6000602082019050919050565b600082825260208201905092915050565b600082825260208201905092915050565b600082825260208201905092915050565b600061101b82611022565b9050919050565b600073ffffffffffffffffffffffffffffffffffffffff82169050919050565b6000819050919050565b82818337600083830152505050565b60005b8381101561107957808201518184015260208101905061105e565b83811115611088576000848401525b50505050565b6000601f19601f8301169050919050565b6110a881611010565b81146110b357600080fd5b50565b6110bf81611042565b81146110ca57600080fd5b5056fea2646970667358221220a3898473a19e27ec1efe993ebe510ec8f9b6dbf7b7619dbf6b477c95149a37d464736f6c63430006010033",
  "source": "// SPDX-License-Identifier: The Unlicencse\npragma solidity ^0.6.1;\npragma experimental ABIEncoderV2;\n\ncontract TimeStore  {\n\n    struct StoredData {\n        uint id;\n        string storedMsg;\n        uint unlockTime;\n    }\n    StoredData[] public userStoredData;\n    string[] public arrString;\n    mapping(address => StoredData[]) public store;\n    string private msgData;\n        \n    // Finds length of current array, so to generate next ID number\n    // Next ID starts at 1, so IDs of zero can be removed\n    // Necessary as memory array in getMsgTimed returns empty arrays\n    // Add user data to temp struct, pushes temp struct to array\n    // Maps array to msg.sender\n    function storeMsg(string memory _storedMsg, uint _unlockTime) public {\n        StoredData[] memory currentData = store[msg.sender];\n        uint nextId = currentData.length + 1;\n        StoredData memory newData = StoredData(nextId, _storedMsg, _unlockTime);\n        userStoredData.push(newData);\n        store[msg.sender] = userStoredData;\n    }\n\n    // Returns all msg for msg.sender, regardless of time\n    function getMsgNow() public view returns (StoredData[] memory) {\n        StoredData[] memory tempData = store[msg.sender];\n        return tempData;\n    }\n\n\n    function getMsgTimed() public view returns (StoredData[] memory) {\n        StoredData[] memory currentData = store[msg.sender];\n        StoredData[] memory unlockedData = new StoredData[](currentData.length);\n        uint unlockedDataIndex = 0;\n        for (uint i = 0; i < currentData.length; i++) {\n            if (currentData[i].unlockTime <= now) {\n                StoredData memory newData = StoredData(currentData[i].id, currentData[i].storedMsg, currentData[i].unlockTime);\n                unlockedData[unlockedDataIndex] = newData;\n                unlockedDataIndex++;\n            }\n        }\n        return unlockedData;\n\n        //TODO: unlockedData full of zeros, shall I filter in React or in solidity?\n    }\n    \n}\n\n// TimeStore.deployed().then(function(instance) {app = instance})\n// app.storeMsg(\"Hello\", 1)\n// app.retrieveMsgNow()\n\n",
  "sourcePath": "/home/gene/Programming/CS/Modules/Research Project/src/codebase/timestore/contracts/TimeStore.sol",
  "compiler": {
    "name": "solc",
    "version": "0.6.1+commit.e6f7d5a4.Emscripten.clang"
  },
  "schemaVersion": "3.2.0",
  "updatedAt": "2020-07-13T13:25:39.199Z",
  "networkType": "ethereum",
  "devdoc": {
    "methods": {}
  },
  "userdoc": {
    "methods": {}
  }
}