{
  "contractName": "TimeStore",
  "abi": [
    {
      "inputs": [
        {
          "internalType": "string",
          "name": "_storedMsg",
          "type": "string"
        },
        {
          "internalType": "uint256",
          "name": "_unlockTime",
          "type": "uint256"
        }
      ],
      "name": "storeMsg",
      "outputs": [],
      "stateMutability": "nonpayable",
      "type": "function"
    },
    {
      "inputs": [],
      "name": "getMsgTimed",
      "outputs": [
        {
          "components": [
            {
              "internalType": "uint256",
              "name": "id",
              "type": "uint256"
            },
            {
              "internalType": "string",
              "name": "storedMsg",
              "type": "string"
            },
            {
              "internalType": "uint256",
              "name": "unlockTime",
              "type": "uint256"
            }
          ],
          "internalType": "struct TimeStore.StoredData[]",
          "name": "",
          "type": "tuple[]"
        }
      ],
      "stateMutability": "view",
      "type": "function"
    }
  ],
  "bytecode": "0x608060405234801561001057600080fd5b50610aee806100206000396000f3fe608060405234801561001057600080fd5b50600436106100365760003560e01c8063288e725f1461003b5780635490ebdf14610057575b600080fd5b610055600480360361005091908101906107ff565b610075565b005b61005f6102a8565b60405161006c9190610974565b60405180910390f35b6060600160003373ffffffffffffffffffffffffffffffffffffffff1673ffffffffffffffffffffffffffffffffffffffff168152602001908152602001600020805480602002602001604051908101604052809291908181526020016000905b828210156101be578382906000526020600020906003020160405180606001604052908160008201548152602001600182018054600181600116156101000203166002900480601f01602080910402602001604051908101604052809291908181526020018280546001816001161561010002031660029004801561019c5780601f106101715761010080835404028352916020019161019c565b820191906000526020600020905b81548152906001019060200180831161017f57829003601f168201915b50505050508152602001600282015481525050815260200190600101906100d6565b5050505090506000600182510190506101d561050d565b6040518060600160405280838152602001868152602001858152509050600081908060018154018082558091505060019003906000526020600020906003020160009091909190915060008201518160000155602082015181600101908051906020019061024492919061052e565b506040820151816002015550506000600160003373ffffffffffffffffffffffffffffffffffffffff1673ffffffffffffffffffffffffffffffffffffffff1681526020019081526020016000209080546102a09291906105ae565b505050505050565b606080600160003373ffffffffffffffffffffffffffffffffffffffff1673ffffffffffffffffffffffffffffffffffffffff168152602001908152602001600020805480602002602001604051908101604052809291908181526020016000905b828210156103f2578382906000526020600020906003020160405180606001604052908160008201548152602001600182018054600181600116156101000203166002900480601f0160208091040260200160405190810160405280929190818152602001828054600181600116156101000203166002900480156103d05780601f106103a5576101008083540402835291602001916103d0565b820191906000526020600020905b8154815290600101906020018083116103b357829003601f168201915b505050505081526020016002820154815250508152602001906001019061030a565b5050505090506060815160405190808252806020026020018201604052801561043557816020015b610422610642565b81526020019060019003908161041a5790505b509050600080905060008090505b8351811015610503574284828151811061045957fe5b602002602001015160400151116104f65761047261050d565b604051806060016040528086848151811061048957fe5b60200260200101516000015181526020018684815181106104a657fe5b60200260200101516020015181526020018684815181106104c357fe5b6020026020010151604001518152509050808484815181106104e157fe5b60200260200101819052508280600101935050505b8080600101915050610443565b5081935050505090565b60405180606001604052806000815260200160608152602001600081525090565b828054600181600116156101000203166002900490600052602060002090601f016020900481019282601f1061056f57805160ff191683800117855561059d565b8280016001018555821561059d579182015b8281111561059c578251825591602001919060010190610581565b5b5090506105aa9190610663565b5090565b8280548282559060005260206000209060030281019282156106315760005260206000209160030282015b828111156106305782826000820154816000015560018201816001019080546001816001161561010002031660029004610614929190610688565b50600282015481600201555050916003019190600301906105d9565b5b50905061063e919061070f565b5090565b60405180606001604052806000815260200160608152602001600081525090565b61068591905b80821115610681576000816000905550600101610669565b5090565b90565b828054600181600116156101000203166002900490600052602060002090601f016020900481019282601f106106c157805485556106fe565b828001600101855582156106fe57600052602060002091601f016020900482015b828111156106fd5782548255916001019190600101906106e2565b5b50905061070b9190610663565b5090565b61074b91905b8082111561074757600080820160009055600182016000610736919061074e565b600282016000905550600301610715565b5090565b90565b50805460018160011615610100020316600290046000825580601f106107745750610793565b601f0160209004906000526020600020908101906107929190610663565b5b50565b600082601f8301126107a757600080fd5b81356107ba6107b5826109c3565b610996565b915080825260208301602083018583830111156107d657600080fd5b6107e1838284610a4e565b50505092915050565b6000813590506107f981610aa1565b92915050565b6000806040838503121561081257600080fd5b600083013567ffffffffffffffff81111561082c57600080fd5b61083885828601610796565b9250506020610849858286016107ea565b9150509250929050565b600061085f8383610915565b905092915050565b6000610872826109ff565b61087c8185610a22565b93508360208202850161088e856109ef565b8060005b858110156108ca57848403895281516108ab8582610853565b94506108b683610a15565b925060208a01995050600181019050610892565b50829750879550505050505092915050565b60006108e782610a0a565b6108f18185610a33565b9350610901818560208601610a5d565b61090a81610a90565b840191505092915050565b600060608301600083015161092d6000860182610965565b506020830151848203602086015261094582826108dc565b915050604083015161095a6040860182610965565b508091505092915050565b61096e81610a44565b82525050565b6000602082019050818103600083015261098e8184610867565b905092915050565b6000604051905081810181811067ffffffffffffffff821117156109b957600080fd5b8060405250919050565b600067ffffffffffffffff8211156109da57600080fd5b601f19601f8301169050602081019050919050565b6000819050602082019050919050565b600081519050919050565b600081519050919050565b6000602082019050919050565b600082825260208201905092915050565b600082825260208201905092915050565b6000819050919050565b82818337600083830152505050565b60005b83811015610a7b578082015181840152602081019050610a60565b83811115610a8a576000848401525b50505050565b6000601f19601f8301169050919050565b610aaa81610a44565b8114610ab557600080fd5b5056fea26469706673582212207d3afdd1e81c92f54388dedf90156a1aae975b085d162f447b6dbe5374b4926b64736f6c63430006010033",
  "source": "// SPDX-License-Identifier: Unlicense\npragma solidity ^0.6.1;\npragma experimental ABIEncoderV2;\n\n/// @title Message Time Store\n/// @author James D Hackman: preciouschicken.com\n/// @notice Stores a string from address, releases string after specified time\ncontract TimeStore  {\n\n    struct StoredData {\n        uint id;\n        string storedMsg;\n        uint unlockTime;\n    }\n    StoredData[] private userStoredData;\n    mapping(address => StoredData[]) private store;\n    \n\n    /// @notice Stores incoming messages from address \n    /** @dev nextId starts at 1, so zeros can be removed by client.\n      Neccessary as memory array in getMsgTimed can return empty arrays.\n      */\n    /// @param _storedMsg string to be stored\n    /// @param _unlockTime unix time for _storedMsg to be stored until\n    function storeMsg(string memory _storedMsg, uint _unlockTime) public {\n        StoredData[] memory currentData = store[msg.sender];\n        uint nextId = currentData.length + 1;\n        StoredData memory newData = StoredData(nextId, _storedMsg, _unlockTime);\n        userStoredData.push(newData);\n        store[msg.sender] = userStoredData;\n    }\n\n    /// @notice Returns unlocked messages, as array of objects\n    /// @dev For any message not unlocked returns an object with blank values\n    /// @return StoredData[] array of StoredData struct \n    function getMsgTimed() public view returns (StoredData[] memory) {\n        StoredData[] memory currentData = store[msg.sender];\n        StoredData[] memory unlockedData = new StoredData[](currentData.length);\n        uint unlockedDataIndex = 0;\n        for (uint i = 0; i < currentData.length; i++) {\n            if (currentData[i].unlockTime <= now) {\n                StoredData memory newData = StoredData(\n                    currentData[i].id, \n                    currentData[i].storedMsg, \n                    currentData[i].unlockTime);\n                unlockedData[unlockedDataIndex] = newData;\n                unlockedDataIndex++;\n            }\n        }\n        return unlockedData;\n    }\n\n}\n\n",
  "sourcePath": "/home/gene/Programming/Websites/Precious_Chicken_Website/blog_code_demos/forget-me-block-msg-time-store/contracts/TimeStore.sol",
  "compiler": {
    "name": "solc",
    "version": "0.6.1+commit.e6f7d5a4.Emscripten.clang"
  },
  "schemaVersion": "3.2.3",
  "updatedAt": "2020-09-12T10:08:39.685Z",
  "devdoc": {
    "author": "James D Hackman: preciouschicken.com",
    "methods": {
      "getMsgTimed()": {
        "details": "For any message not unlocked returns an object with blank values",
        "returns": {
          "_0": "StoredData[] array of StoredData struct "
        }
      },
      "storeMsg(string,uint256)": {
        "params": {
          "_storedMsg": "string to be stored",
          "_unlockTime": "unix time for _storedMsg to be stored until"
        }
      }
    },
    "title": "Message Time Store"
  },
  "userdoc": {
    "methods": {
      "getMsgTimed()": {
        "notice": "Returns unlocked messages, as array of objects"
      }
    },
    "notice": "Stores a string from address, releases string after specified time"
  }
}